:04000000E4EF01F038
:100008005F82FACF35F0FBCF36F0E9CF37F0EACF91
:1000180038F0E1CF39F0E2CF3AF0D9CF3BF0DACF80
:100028003CF0F3CF3DF0F4CF3EF0F6CF3FF0F7CF02
:1000380040F0F8CF41F0F5CF42F09EAA2AD0ABA20B
:1000480002D0AB98AB88AE50336E346A5850020D6C
:10005800120EF324D96E010EF420DA6E33C0DEFFDF
:1000680034C0DDFF070E0101121901011311D8A4D4
:1000780004D0050E586001D0582A050E5818D8A487
:1000880007D0000E0001996F010E986F000E586E90
:100098009E9AA4A853D0A498592A630E5918D8A494
:1000A80002D0000E596E5950420F5A6E620E5A64B1
:1000B80003D05A509D0F5A6E5950210F5B6E620E35
:1000C8005B6403D05B509D0F5B6E5950020D010EAF
:1000D800F324F66E040EF420F76E0900F5CF9CF0B9
:1000E8000A00F5CF9DF05A50020D010EF324F66E6A
:1000F800040EF420F76E0900F5CF9EF00A00F5CF44
:100108009FF05B50020D010EF324F66E040EF420EE
:10011800F76E0900F5CFA0F00A00F5CFA1F09CC05A
:1001280079FF00019D51786E9EC077FF00019F51B5
:10013800766EA0C075FF0001A151746EF2A422D1A1
:10014800F2940001B651D8A403D0010E0001B66F95
:10015800BFEC0DF05DEC0EF06EEC0EF047044810AD
:10016800D8A41CD04B04D8A419D00001B851D8B4D5
:1001780015D06F9C6F9A6F98808C060E0001B76F30
:10018800000E556E93909392939493969398939AA6
:1001980081908192819481968198819A5404D8A4FF
:1001A80082B20FD04E04D8B40CD04D04D8B409D0C4
:1001B8004F04D8B406D05704D8B403D04C04D8A4FC
:1001C80025D06F9C6F9A6F9893909392939493967F
:1001D8009398939A81908192819481968198819A3B
:1001E800000E4A6E000E496E000E5C6EA00E5D6E2B
:1001F800400E5E6E000E4E6E000E4D6E000E4F6E7F
:10020800000E4C6E000E576E000E546E0001A64B89
:10021800A72B0001A75105E11E0E0001A65DD8A07D
:100228006FD082BA02D0828A01D0829A0001A44B90
:10023800A52BFAEC08F008EC0BF00001B951D8A492
:1002480003D0010E0001B96F000E0001A76F000E68
:10025800A66F47044810D8A41CD04B04D8A419D0C2
:100268005550D8A416D00001B851D8A412D0010E08
:10027800556E39EC0EF0A388809C000E4F6E000E70
:100288004E6E000E4D6E000E576E000E4C6E000E38
:10029800546E5504D8A408D04B04D8A405D0000146
:1002A800B851D8B4AFEC0CF047044810D8A428D003
:1002B8004B50D8A425D082846F9C6F9A6F98060EF5
:1002C8000001B76F000E556E939093929394939696
:1002D8009398939A81908192819481968198819A3A
:1002E800000E4E6E000E0001B86F000E526E000E2A
:1002F800516E000E4D6E000E4C6E8294000E546EC0
:10030800532A960E5318D8A419D05450D8A414D0F0
:100318004E50D8A411D04D50D8A40ED04F50D8A4C8
:100328000BD05750D8A408D04C50D8A405D0000EF4
:100338000001B86F809C8296000E536E80A880A43E
:1003480021D047504810D8A41DD049044A10D8A439
:1003580019D06F9C6F9A6F989390939293949396F9
:100368009398939A81908192819481968198819AA9
:10037800000E4A6E000E496E000E5C6EA00E5D6E99
:10038800400E5E6E42C0F5FF41C0F8FF40C0F7FF67
:100398003FC0F6FF3EC0F4FF3DC0F3FF3CC0DAFFAC
:1003A8003BC0D9FF3AC0E2FF39C0E1FF38C0EAFFDD
:1003B80037C0E9FF36C0FBFF35C0FAFF5F92110076
:0403C80085EF0DF0C0
:1004000000A000AA00B400BE00C800D100DB00E4D8
:1004100000ED00F600FE0006010E0115011B012192
:100420000127012C013101340138013B013D013E1E
:10043000013F013F013E013D013C013901360133DD
:10044000012E012A0124011E01180111010A0102D5
:1004500001FA00F100E900DF00D600CC00C300B9CA
:1004600000AF00A5009A00900086007C0073006930
:1004700000600056004E0045003D0035002E00276C
:100480000021001B00150011000C000900060003EC
:10049000000200010000000000010002000400074B
:1004A000000B000E00130018001E0024002A00316B
:1004B0000039004100490052005B0064006E007783
:1004C0000081008B009500A0000A000D0000730E53
:1004D000D36EA3EC0EF096EC0EF07CEC0EF089ECF3
:1004E0000EF093909392939493969398939A81900D
:1004F0008192819481968198819A9498949A829815
:10050000829A94948294240E0001F96FF40E0001F3
:10051000FA6F490E0001FB6F000E0001FC6FC60E62
:100520000001FD6F430E0001FE6FF28EF28CA49865
:100530008284EA0E0001EC6FC30EE82EFED7EC2F8A
:10054000FCD700F082940001B905D8A403D0000EB6
:100550000001B96F0001B605D8A4DBD0000E000180
:10056000B66F000E0001846F000E0001856F000E53
:100570000001866F000E0001786F000E0001796F98
:10058000000E00017A6F000E00018D6F000E000159
:100590008E6F000E00018F6F8DC0BAF08EC0BBF061
:1005A0008FC0BCF0000E0001BD6F8C0E0001BE6F4D
:1005B000420E0001BF6FF4EC0BF00001D8B073D015
:1005C000F6EC0DF0BAC0C2F0BBC0C3F024EC0EF0E4
:1005D000C2C081F0C3C082F0C4C083F0DEEC0DF075
:1005E000BAC0C2F0BBC0C3F024EC0EF0C2C075F0BC
:1005F000C3C076F0C4C077F084C0BAF085C0BBF049
:1006000086C0BCF081C0BDF082C0BEF083C0BFF028
:10061000F4EC0BF00001D8B006D081C084F082C0A9
:1006200085F083C086F078C0BAF079C0BBF07AC09C
:10063000BCF075C0BDF076C0BEF077C0BFF0F4EC82
:100640000BF00001D8B006D075C078F076C079F014
:1006500077C07AF08DC0C2F08EC0C3F08FC0C4F0F6
:10066000000E0001C56F800E0001C66F3F0E000135
:10067000C76FF9EC04F0C2C08DF0C3C08EF0C4C0E7
:100680008FF08DC0BAF08EC0BBF08FC0BCF0000EF2
:100690000001BD6F8C0E0001BE6F420E0001BF6FE6
:1006A000F4EC0BF08AD76CC06FF06DC070F06EC0C8
:1006B00071F069C06CF06AC06DF06BC06EF066C01E
:1006C00069F067C06AF068C06BF063C066F064C030
:1006D00067F065C068F060C063F061C064F062C03C
:1006E00065F084C060F085C061F086C062F003C12F
:1006F00006F104C107F105C108F100C103F101C110
:1007000004F102C105F178C000F179C001F17AC0AD
:1007100002F166C0C5F067C0C6F068C0C7F063C02C
:10072000C2F064C0C3F065C0C4F0F9EC04F0C2C00C
:10073000F6F0C3C0F7F0C4C0F8F069C0C5F06AC0F5
:10074000C6F06BC0C7F0F6C0C2F0F7C0C3F0F8C087
:10075000C4F0F9EC04F0C2C0EDF0C3C0EEF0C4C0C8
:10076000EFF06CC0C5F06DC0C6F06EC0C7F0EDC054
:10077000C2F0EEC0C3F0EFC0C4F0F9EC04F0C2C0A8
:10078000F0F0C3C0F1F0C4C0F2F06FC0C5F070C0AB
:10079000C6F071C0C7F0F0C0C2F0F1C0C3F0F2C043
:1007A000C4F0F9EC04F0C2C0F3F0C3C0F4F0C4C06C
:1007B000F5F060C0C5F061C0C6F062C0C7F0F3C01C
:1007C000C2F0F4C0C3F0F5C0C4F0F9EC04F0C2C04C
:1007D000CEF0C3C0CFF0C4C0D0F0000E0001D16F86
:1007E000C00E0001D26F400E0001D36FB2EC07F0D3
:1007F000CEC08AF0CFC08BF0D0C08CF08AC0CEF0D3
:100800008BC0CFF08CC0D0F0A70E0001D16FAE0E20
:100810000001D26F3C0E0001D36F03EC07F0CEC095
:1008200087F0CFC088F0D0C089F006C1C5F007C1FD
:10083000C6F008C1C7F003C1C2F004C1C3F005C1CE
:10084000C4F0F9EC04F0C2C0F6F0C3C0F7F0C4C0C5
:10085000F8F000C1C5F001C1C6F002C1C7F0F6C092
:10086000C2F0F7C0C3F0F8C0C4F0F9EC04F0C2C0A5
:10087000CEF0C3C0CFF0C4C0D0F0000E0001D16FE5
:10088000400E0001D26F400E0001D36FB2EC07F0B2
:10089000CEC07BF0CFC07CF0D0C07DF0000E000158
:1008A000C56F7E0E0001C66FC60E0001C76F7BC00C
:1008B000C2F07CC0C3F07DC0C4F0F9EC04F0C2C04B
:1008C000CEF0C3C0CFF0C4C0D0F0B80E0001D16FDD
:1008D0008F0E0001D26F3B0E0001D36F03EC07F0C7
:1008E000CEC07EF0CFC07FF0D0C080F0000E0001FF
:1008F000D16F200E0001D26F410E0001D36F7EC078
:10090000CEF07FC0CFF080C0D0F003EC07F0CEC0B7
:10091000DDF0CFC0DEF0D0C0DFF058EC08F0DDC075
:10092000A2F0DEC0A3F087C0DDF088C0DEF089C091
:10093000DFF058EC08F0DDC094F0DEC095F0000167
:1009400094510001926F936B000195510001906FDB
:10095000916B0001985100019911D8B4F4D5000EA3
:100960000001996F000E986F300E010118190101F6
:100970001911D8B40EEC0EF082883A0E0001EC6F1B
:10098000230EE82EFED7EC2FFCD700F0200EAFECA4
:100990000EF001011A51AFEC0EF00001B751AFECAF
:1009A0000EF000019251AFEC0EF000019051AFEC4F
:1009B0000EF00001A251AFEC0EF00001B851AFEC07
:1009C0000EF001011A51AFEC0EF0400EAFEC0EF03C
:1009D00001011A51AFEC0EF03A0E0001EC6F230E3C
:1009E000E82EFED7EC2FFCD700F08298000E586E50
:1009F000AAD5C4C0C8F00001C96BCA6B0001C335D9
:100A00000001C83701E3C9810001C8510001CD6F61
:100A1000C7C0C8F00001C96BCA6B0001C635000130
:100A2000C83701E3C9810001C8510001CC6F000142
:100A3000CD510001D8B411D00001CC510001CD5DE1
:100A4000D8B012D00001CD5100080001CC25000122
:100A5000C86F180E0001C86507D0C5C0C2F0C6C077
:100A6000C3F0C7C0C4F012000001CC510001D8B4DB
:100A700011D00001CD510001CC5DD8B012D00001E1
:100A8000CC5100080001CD250001C86F180E0001EF
:100A9000C86507D0C2C0C2F0C3C0C3F0C4C0C4F0B0
:100AA0001200060E0001CB6F0001C4AF02D000019E
:100AB000CB8F0001C7AF02D00001CB8D0001C38FE7
:100AC000FF0E0001C217FF0E0001C317000E000148
:100AD000C4170001C68FFF0E0001C517FF0E0001ED
:100AE000C617000E0001C7170001CC510001CD5DF3
:100AF000D8B025D00001D890C537C637C737000118
:100B0000CC070001CD510001CC19D8B411D000019F
:100B1000CB07CBC0C8F0070E0001C817D8B408D067
:100B2000E9D70001D890C433C333C2330001CD2BC1
:100B30000001CC510001CD19D8B42BD0F2D700015F
:100B4000CD510001CC5DD8B024D00001D890C2377F
:100B5000C337C4370001CD070001CD510001CC19C6
:100B6000D8B411D00001CB07CBC0C8F0070E0001EC
:100B7000C817D8B408D0E9D70001D890C733C63316
:100B8000C5330001CC2B0001CC510001CD19D8A4F4
:100B9000F3D70001CBAF12D0FF0E0001C21BFF0E36
:100BA0000001C31BFF0E0001C41B010E0001C22780
:100BB000000E0001C323000E0001C4230001CBADD1
:100BC00012D0FF0E0001C51BFF0E0001C61BFF0E59
:100BD0000001C71B010E0001C527000E0001C6233E
:100BE000000E0001C723000E0001CB6F0001C251AF
:100BF0000001C5270001C3510001C6230001C451F3
:100C00000001C7230001C7AF15D0FF0E0001C51BAF
:100C1000FF0E0001C61BFF0E0001C71B010E0001E5
:100C2000C527000E0001C623000E0001C723010ED8
:100C30000001CB6FC5C0BAF0C6C0BBF0C7C0BCF0E6
:100C4000CDC0BDF0CBC0BEF08EEC09F0BAC0C2F092
:100C5000BBC0C3F0BCC0C4F012001AC01EF01F6AB3
:100C6000206A19341E3601E31F801E50236E1DC0FA
:100C70001EF01F6A206A1C341E3601E31F801E50BE
:100C8000226E2350D8B40BD02250235CD8B00ED0A3
:100C90002350000822241E6E180E1E6407D01BC0AD
:100CA00018F01CC019F01DC01AF012002250D8B460
:100CB0000BD02350225CD8B00ED022500008232441
:100CC0001E6E180E1E6407D018C018F019C019F057
:100CD0001AC01AF01200060E216E1ABE218E1DBE19
:100CE000218C198EFF0E1816FF0E1916000E1A16FB
:100CF0001C8EFF0E1B16FF0E1C16000E1D1622501A
:100D0000235CD8B01BD0D8901B361C361D3622066B
:100D100023502218D8B40DD0210621C01EF0070E92
:100D20001E16D8B406D0EFD7D8901A32193218321E
:100D3000232A22502318D8B41FD0F6D72350225C80
:100D4000D8B01AD0D890183619361A362306235040
:100D50002218D8B40DD0210621C01EF0070E1E1691
:100D6000D8B406D0EFD7D8901D321C321B32222ABD
:100D700022502318D8A4F7D721AE0CD0FF0E181A92
:100D8000FF0E191AFF0E1A1A010E1826000E19224C
:100D9000000E1A2221AC0CD0FF0E1B1AFF0E1C1ADB
:100DA000FF0E1D1A010E1B26000E1C22000E1D2216
:100DB000000E216E18501B2619501C221A501D229D
:100DC0001DAE0ED0FF0E1B1AFF0E1C1AFF0E1D1AB1
:100DD000010E1B26000E1C22000E1D22010E216E8C
:100DE0001BC001F01CC002F01DC003F023C004F0C2
:100DF00021C005F058EC0CF001C018F002C019F049
:100E000003C01AF01200D0C0D4F00001D56BD66B2D
:100E10000001CF350001D43701E3D5810001D45161
:100E20000001D76F0001D751D8A40AD0000E0001ED
:100E3000CE6F000E0001CF6F000E0001D06F1200C8
:100E4000D3C0D4F00001D56BD66B0001D2350001C0
:100E5000D43701E3D5810001D4510001DC6F0001DA
:100E6000DC51D8A40AD0000E0001CE6F000E0001A4
:100E7000CF6F000E0001D06F12000001DC517B0F1C
:100E80000001D727D0C0DCF00001D3510001DC1BEA
:100E9000800E0001DC170001CF8F0001D28FFF0E02
:100EA0000001D117FF0E0001D217000E0001D31769
:100EB000000E0001D86F000E0001D96F000E000176
:100EC000DA6F070E0001DB6F0001CEA10CD000012C
:100ED000D1510001D8270001D2510001D9230001CE
:100EE000D3510001DA230001D890D033CF33CE3371
:100EF0000001D890D137D237D3370001DB2FE4D7A8
:100F0000090E0001DB6F0001CEA10CD00001D15110
:100F10000001D8270001D2510001D9230001D3518B
:100F20000001DA230001D890D033CF33CE33000153
:100F3000D890DA33D933D8330001DB2FE4D7D8C0C7
:100F4000BAF0D9C0BBF0DAC0BCF0D7C0BDF0DCC08D
:100F5000BEF08EEC09F0BAC0CEF0BBC0CFF0BCC082
:100F6000D0F01200D0C0D4F00001D56BD66B0001D8
:100F7000CF350001D43701E3D5810001D451000100
:100F8000DB6F0001DB51D8A40AD0000E0001CE6F48
:100F9000000E0001CF6F000E0001D06F1200D3C011
:100FA000D4F00001D56BD66B0001D2350001D437E7
:100FB00001E3D5810001D4510001DC6F0001DC5157
:100FC000D8A40AD0000E0001CE6F000E0001CF6F32
:100FD000000E0001D06F1200000E0001D86F000E4D
:100FE0000001D96F000E0001DA6F0001DC51890F9A
:100FF0000001DB5FD0C0DCF00001D3510001DC1B3D
:10100000800E0001DC170001CF8FFF0E0001CE170C
:10101000FF0E0001CF17000E0001D0170001D28F84
:10102000FF0E0001D117FF0E0001D217000E0001C4
:10103000D317180E0001D76F0001D890D837D937D1
:10104000DA370001D1510001CE5D0001D25100011B
:10105000CF590001D3510001D059D8A00ED00001C2
:10106000D1510001CE5F0001D2510001CF5B0001E0
:10107000D3510001D05B0001D8810001D890CE3758
:10108000CF37D0370001D72FD7D7D8C0BAF0D9C0C3
:10109000BBF0DAC0BCF0DBC0BDF0DCC0BEF08EEC53
:1010A00009F0BAC0CEF0BBC0CFF0BCC0D0F0120087
:1010B000DFC0E1F00001E26BE36B0001DE3500010F
:1010C000E13701E3E2810001E1510001EB6F000132
:1010D000EB51D8A40AD0000E0001DD6F000EDE6FC8
:1010E000000EDF6F000EE06F1200170E0001E16FBF
:1010F000DDC0E2F0DEC0E3F0DFC0E4F00001E12992
:101100000001E56F05D00001D890E433E333E2330A
:101110000001E52FF8D70001E2510001E66F000160
:10112000DE8FFF0E0001DD17FF0E0001DE17000E3F
:101130000001DF170001DD510001E76F0001DE5102
:101140000001E86F0001DF510001E96F0001EA6B67
:101150008E0E0001EB5F0001EBAF1AD00001EB51E6
:10116000800A8F0FD8B00AD0000E0001DD6F000E8C
:10117000DE6F000EDF6F000EE06F12000001D890EE
:10118000EA33E933E833E7330001EB3FF7D71BD00D
:10119000170E0001EB6512D0000E0001DD6F000E8E
:1011A000DE6F000EDF6F000EE06F12000001D890BE
:1011B000E737E837E937EA370001EB070001EB5181
:1011C0000001D8A4F3D70001E6510001D8B409D03A
:1011D0000001EA1FE91FE81FE76D000EE823E9237D
:1011E000EA23E7C0DDF0E8C0DEF0E9C0DFF0EAC0E6
:1011F000E0F0120080A480A830D047504810D8A456
:101200002CD05CC018F05DC019F05EC01AF0000E62
:101210001B6E800E1C6E3F0E1D6E2DEC06F018C06E
:101220005CF019C05DF01AC05EF05CC001F05DC0FA
:1012300002F05EC003F0000E046E5C0E056E420EFE
:10124000066EF8EC0CF0D8A006D0000E5C6E5C0EBA
:101250005D6E420E5E6E40EC0DF080B630D04750B1
:101260004810D8A42CD05CC018F05DC019F05EC046
:101270001AF0000E1B6E800E1C6EBF0E1D6E2DEC44
:1012800006F018C05CF019C05DF01AC05EF0000EE8
:10129000016EA00E026E400E036E5CC004F05DC0D5
:1012A00005F05EC006F0F8EC0CF0D8A006D0000EF9
:1012B0005C6EA00E5D6E400E5E6E40EC0DF0475011
:1012C0004810D8B480B81ED080B41CD04E50D8A4DA
:1012D00019D04D50D8A416D04F50D8A413D049508F
:1012E0004A10D8A40FD039EC0EF0A38840EC0DF0D2
:1012F000000E4A6E010E496E000E4F6E000E4E6ECD
:10130000000E4D6E80BE05D0000E486E000E476E7A
:101310001200000E486E010E476E12000001BD5112
:101320000001D8B408D00001BA510001BB1100017E
:10133000BC11D8A411D0000E0001BA6F000E00013C
:10134000BB6F000E0001BC6F12000001BD2B00013D
:10135000D890BC33BB33BA33000E0001BA1500017C
:10136000BF6F000E0001BB150001C06FFE0E000133
:10137000BC150001C16F0001BF510001C011000187
:10138000C111D8B411D0E1D70001BD2B010E00016D
:10139000BA27000E0001BB23000E0001BC23000190
:1013A000D890BC33BB33BA33000E0001BA1500012C
:1013B000BF6F000E0001BB150001C06FFF0E0001E2
:1013C000BC150001C16F0001BF510001C011000137
:1013D000C111D8B408D0D8D70001BD070001D890FA
:1013E000BA37BB37BC370001BBBF04D0020E0001C7
:1013F000BD61F2D70001BDB102D00001BB9F000169
:10140000D890BD330001BD510001BC130001BE5195
:101410000001D8B402D00001BC8FBAC0BAF0BBC082
:10142000BBF0BCC0BCF0120026C028F0296A2A6AB2
:101430002534283601E329802850326E3250D8A452
:1014400009D0000E246E000E256E000E266E000ED2
:10145000276E1200170E286E24C029F025C02AF02E
:1014600026C02BF028282C6E04D0D8902B322A329C
:1014700029322C2EFAD729502D6E258EFF0E2416D8
:10148000FF0E2516000E261624502E6E25502F6EA8
:101490002650306E316A8E0E325E32AE16D0325029
:1014A000800A8F0FD8B009D0000E246E000E256E72
:1014B000000E266E000E276E1200D89031323032A8
:1014C0002F322E32323EF9D715D0170E32640FD09C
:1014D000000E246E000E256E000E266E000E276E86
:1014E0001200D8902E362F36303631363206325032
:1014F000D8A4F7D72D50D8B408D0311E301E2F1ED7
:101500002E6C000E2F22302231222EC024F02FC04C
:1015100025F030C026F031C027F012000FC013F0C4
:10152000146A156A0E34133601E314801350166ED4
:101530001650D8A407D0000E0D6E000E0E6E000ED1
:101540000F6E120012C013F0146A156A11341336AC
:1015500001E3148013501B6E1B50D8A407D0000E5B
:101560000D6E000E0E6E000E0F6E12001B507B0FE4
:1015700016260FC01BF012501B1A800E1B160E8E63
:10158000118EFF0E1016FF0E1116000E1216000E11
:10159000176E000E186E000E196E070E1A6E0DA053
:1015A00006D0105017261150182212501922D89028
:1015B0000F320E320D32D8901036113612361A2EE6
:1015C000EED7090E1A6E0DA006D010501726115036
:1015D000182212501922D8900F320E320D32D890A4
:1015E0001932183217321A2EEED717C001F018C070
:1015F00002F019C003F016C004F01BC005F058EC4F
:101600000CF001C00DF002C00EF003C00FF012008C
:10161000000E016EC80E026E430E036E87C004F00A
:1016200088C005F089C006F0F8EC0CF0D8A00FD007
:10163000522A090E526410D0000E526E010E4E6EE8
:10164000030E0001B86F82B606D0828605D0000E68
:101650004E6E000E526E8296000E016EC80E026E25
:10166000420E036E87C004F088C005F089C006F002
:10167000F8EC0CF0D8A00FD0502A5050D8B410D0AD
:10168000000E506E010E4C6E070E0001B86F82B650
:1016900006D0828605D0000E4C6E000E506E8296EB
:1016A00087C001F088C002F089C003F0000E046E0C
:1016B0002F0E056E440E066EF8EC0CF0D8A00FD07D
:1016C000512A030E516410D0000E516E010E4D6E62
:1016D000030E0001B86F82B606D0828605D0000ED8
:1016E0004D6E000E516E829682A21200060E00010F
:1016F000B86F010E566E82B602D0828612008296B4
:1017000012000BC00FF0106A116A0A340F3601E3A1
:1017100010800F50166E1650D8A407D0000E096E18
:10172000000E0A6E000E0B6E12000EC00FF0106A53
:10173000116A0D340F3601E310800F50176E1750E9
:10174000D8A407D0000E096E000E0A6E000E0B6EB4
:101750001200000E136E000E146E000E156E175060
:10176000890F165E0BC017F00E50171A800E171651
:101770000A8EFF0E0916FF0E0A16000E0B160D8EAE
:10178000FF0E0C16FF0E0D16000E0E16180E126E22
:10179000D8901336143615360C50095C0D500A5883
:1017A0000E500B58D8A007D00C50095E0D500A5AA5
:1017B0000E500B5A1380D89009360A360B36122E6B
:1017C000E7D713C001F014C002F015C003F016C033
:1017D00004F017C005F058EC0CF001C009F002C08D
:1017E0000AF003C00BF012000001BCAF1DD0BAC05C
:1017F000C0F0BBC0C1F0BCC0C2F00001C01FC11F1F
:10180000C21FC02B000EC123C223000E0001C02541
:101810000001BA6F000E0001C1210001BB6F800EF4
:101820000001C2210001BC6F0001BFAF1DD0BDC0CF
:10183000C0F0BEC0C1F0BFC0C2F00001C01FC11FD8
:10184000C21FC02B000EC123C223000E0001C02501
:101850000001BD6F000E0001C1210001BE6F800EAE
:101860000001C2210001BF6F000E0001BA1B000E73
:101870000001BB1B800E0001BC1B000E0001BD1B44
:10188000000E0001BE1B800E0001BF1B0001BD51F8
:101890000001BA5D0001BE510001BB590001BF51FA
:1018A0000001BC59D8B002D0D8901200D8801200E4
:1018B0000450D8B405D0015002100310D8A40CD0A5
:1018C000000E016E000E026E000E036E1200042A5E
:1018D000D890033202320132000E0114066E000E5F
:1018E0000214076EFE0E0314086E0650071008104F
:1018F000D8B40CD0ECD7042A010E0126000E022227
:10190000000E0322D890033202320132000E01147D
:10191000066E000E0214076EFF0E0314086E0650CA
:1019200007100810D8B406D0E6D70406D8900136C0
:101930000236033602BE03D0020E0460F6D704A0BE
:10194000029ED8900432045003120550D8A4038E8E
:1019500001C001F002C002F003C003F01200000158
:10196000B7514BEC0EF009C00DF00AC00EF00BC0E1
:101970000FF0FCC010F0FDC011F0FEC012F08EECB4
:101980000AF00DC072F00EC073F00FC074F0000EBC
:101990001B6E800E1C6EBF0E1D6E72C00CF073C0ED
:1019A0000DF074C00EF0F9C009F0FAC00AF0FBC0E7
:1019B0000BF081EC0BF009C018F00AC019F00BC055
:1019C0001AF02DEC06F018C024F019C025F01AC04A
:1019D00026F014EC0AF024C043F025C044F026C0E1
:1019E00045F027C046F043C07BFF44C07AFF120099
:1019F00003AE16D001C007F002C008F003C009F022
:101A0000071E081E091E072A000E08220922000EC2
:101A10000724016E000E0820026E800E0920036E5E
:101A200006AE16D004C007F005C008F006C009F0E5
:101A3000071E081E091E072A000E08220922000E92
:101A40000724046E000E0820056E800E0920066E25
:101A5000000E011A000E021A800E031A000E041A5C
:101A6000000E051A800E061A0450015C055002583B
:101A700006500358D8B002D0D8901200D880120077
:101A8000FCC00DF0FDC00EF0FEC00FF05CC010F009
:101A90005DC011F05EC012F08EEC0AF00DC072F065
:101AA0000EC073F00FC074F0000E1B6E800E1C6E23
:101AB000BF0E1D6E72C00CF073C00DF074C00EF03E
:101AC000F9C009F0FAC00AF0FBC00BF081EC0BF092
:101AD00009C018F00AC019F00BC01AF02DEC06F07E
:101AE00018C024F019C025F01AC026F014EC0AF032
:101AF00024C043F025C044F026C045F027C046F07E
:101B000043C07BFF44C07AFF12006C0EF66E1D0EC0
:101B1000F76E000EF86E01EE30F010EE08F00900DE
:101B2000F5CFEEFFE550E150FAE1740EF66E1D0EB2
:101B3000F76E000EF86E0900F5CF5CF00900F5CFE6
:101B40005DF00900F5CF5EF001EE00F0300EEE6AB8
:101B5000E806FDE100EE60F05A0EEE6AE806FDE1EF
:101B600000EE43F0190EEE6AE806FDE15F905F9229
:101B7000000EF86E040EF76E000167EF02F07EC0F3
:101B800001F07FC002F080C003F0000E046E200E52
:101B9000056E410E066EF8EC0CF0D8A00BD0010ECD
:101BA0004F6E080E0001B86F82B602D08286120016
:101BB00082961200000E4F6E82961200C298C28466
:101BC000C296C29AC280C282C2B2FED7C290C4502C
:101BD0000001BD6FBC6BC3500001BC250001BA6F92
:101BE000000E0001BD210001BB6F1200C298C2941B
:101BF000C296C29AC280C282C2B2FED7C290C450FC
:101C00000001BD6FBC6BC3500001BC250001BA6F61
:101C1000000E0001BD210001BB6F120014C14BF08A
:101C20000101175105E1050E0101165DD8A0120052
:101C30000101175108E13D0E0101165DD8B01200F7
:101C400016C1B7F012001200C2C0BAF0C3C0BBF098
:101C50000001BC6B8E0E0001BD6F000E0001BE6F57
:101C60008EEC09F0BAC0C2F0BBC0C3F0BCC0C4F077
:101C70001200000E936E040E7F6E7E9E400E6F6EFD
:101C8000010E6E6E6B68000E6A6E000E716E0A0EAB
:101C90006D6E7E8E12000C6E0C50016E026A036A2D
:101CA0008E0E046E000E056E58EC0CF001C009F0AB
:101CB00002C00AF003C00BF0120082A20BD0060E85
:101CC0000001B86F010E576E82B602D082861200F4
:101CD00082961200000E576E8296120082A008D0E3
:101CE000010E546E82B602D08286120082961200D5
:101CF000000E546E82961200AC98AC84AA96948C16
:101D0000948EAC8AAB88AB8E330EAF6E9E9A9D8A52
:101D10001200000EC16E000E9A6E3D0EC06E9990BC
:101D200099929998999AB880B88212009496928460
:101D3000B8949286B8969288B898928E9482929C23
:101D4000809C94801200D59ED58CD59AD598D59636
:101D5000D580D582D584F294F28AD58E1200000106
:101D6000BA6F9EA8FED7BAC0ADFF12000A00640089
:071D7000E803102700A0406A
:020000040020DA
:08000000FFFFFFFFFFFFFFFF00
:020000040030CA
:0E000000FFC80D3E3C9D81FF0FC00FE00F407A
:00000001FF
